{
  "_format": "hh-sol-artifact-1",
  "contractName": "StorageHealthRecords",
  "sourceName": "contracts/StorageHealthRecords.sol",
  "abi": [
    {
      "inputs": [],
      "stateMutability": "nonpayable",
      "type": "constructor"
    },
    {
      "inputs": [],
      "name": "admin",
      "outputs": [
        {
          "internalType": "address",
          "name": "",
          "type": "address"
        }
      ],
      "stateMutability": "view",
      "type": "function"
    },
    {
      "inputs": [
        {
          "internalType": "address",
          "name": "_patient",
          "type": "address"
        },
        {
          "internalType": "address",
          "name": "_doctor",
          "type": "address"
        }
      ],
      "name": "checkAccess",
      "outputs": [
        {
          "internalType": "bool",
          "name": "",
          "type": "bool"
        }
      ],
      "stateMutability": "view",
      "type": "function"
    },
    {
      "inputs": [
        {
          "internalType": "address",
          "name": "_doctor",
          "type": "address"
        }
      ],
      "name": "getHerbalRecords",
      "outputs": [
        {
          "components": [
            {
              "internalType": "string",
              "name": "cid",
              "type": "string"
            },
            {
              "internalType": "uint256",
              "name": "timestamp",
              "type": "uint256"
            }
          ],
          "internalType": "struct StorageHealthRecords.HerbalRecord[]",
          "name": "",
          "type": "tuple[]"
        }
      ],
      "stateMutability": "view",
      "type": "function"
    },
    {
      "inputs": [
        {
          "internalType": "address",
          "name": "_patient",
          "type": "address"
        }
      ],
      "name": "getMedicalRecords",
      "outputs": [
        {
          "components": [
            {
              "internalType": "string",
              "name": "cid",
              "type": "string"
            },
            {
              "internalType": "uint256",
              "name": "timestamp",
              "type": "uint256"
            }
          ],
          "internalType": "struct StorageHealthRecords.MedicalRecord[]",
          "name": "",
          "type": "tuple[]"
        }
      ],
      "stateMutability": "view",
      "type": "function"
    },
    {
      "inputs": [
        {
          "internalType": "address",
          "name": "_doctor",
          "type": "address"
        }
      ],
      "name": "grantAccess",
      "outputs": [],
      "stateMutability": "nonpayable",
      "type": "function"
    },
    {
      "inputs": [
        {
          "internalType": "address",
          "name": "",
          "type": "address"
        },
        {
          "internalType": "address",
          "name": "",
          "type": "address"
        }
      ],
      "name": "pendingRequests",
      "outputs": [
        {
          "internalType": "bool",
          "name": "",
          "type": "bool"
        }
      ],
      "stateMutability": "view",
      "type": "function"
    },
    {
      "inputs": [
        {
          "internalType": "address",
          "name": "_doctor",
          "type": "address"
        }
      ],
      "name": "rejectAccess",
      "outputs": [],
      "stateMutability": "nonpayable",
      "type": "function"
    },
    {
      "inputs": [
        {
          "internalType": "address",
          "name": "_patient",
          "type": "address"
        }
      ],
      "name": "requestAccess",
      "outputs": [],
      "stateMutability": "nonpayable",
      "type": "function"
    },
    {
      "inputs": [
        {
          "internalType": "address",
          "name": "_doctor",
          "type": "address"
        }
      ],
      "name": "revokeAccess",
      "outputs": [],
      "stateMutability": "nonpayable",
      "type": "function"
    },
    {
      "inputs": [
        {
          "internalType": "string",
          "name": "_cid",
          "type": "string"
        }
      ],
      "name": "storeHerbalData",
      "outputs": [],
      "stateMutability": "nonpayable",
      "type": "function"
    },
    {
      "inputs": [
        {
          "internalType": "address",
          "name": "_patient",
          "type": "address"
        },
        {
          "internalType": "string",
          "name": "_cid",
          "type": "string"
        }
      ],
      "name": "storeMedicalRecord",
      "outputs": [],
      "stateMutability": "nonpayable",
      "type": "function"
    },
    {
      "inputs": [
        {
          "internalType": "address",
          "name": "",
          "type": "address"
        }
      ],
      "name": "verifiedDoctor",
      "outputs": [
        {
          "internalType": "bool",
          "name": "",
          "type": "bool"
        }
      ],
      "stateMutability": "view",
      "type": "function"
    },
    {
      "inputs": [
        {
          "internalType": "address",
          "name": "_doctor",
          "type": "address"
        }
      ],
      "name": "verifyDoctor",
      "outputs": [],
      "stateMutability": "nonpayable",
      "type": "function"
    }
  ],
  "bytecode": "0x608060405234801561001057600080fd5b50336000806101000a81548173ffffffffffffffffffffffffffffffffffffffff021916908373ffffffffffffffffffffffffffffffffffffffff160217905550611a2e806100606000396000f3fe608060405234801561001057600080fd5b50600436106100cf5760003560e01c806373c945781161008c578063afd8297c11610066578063afd8297c1461020c578063d80cb05c1461023c578063eba7c07c14610258578063f851a44014610288576100cf565b806373c94578146101a457806385e68531146101d4578063a5ff6c21146101f0576100cf565b8063022cb271146100d45780630ae5e739146100f05780632e8ce6c01461010c5780633141172c146101285780634162aa6d1461014457806362e1f74514610174575b600080fd5b6100ee60048036038101906100e99190610f0f565b6102a6565b005b61010a60048036038101906101059190610f0f565b61033d565b005b61012660048036038101906101219190611082565b6103d5565b005b610142600480360381019061013d9190610f0f565b610503565b005b61015e60048036038101906101599190610f0f565b6106f9565b60405161016b91906110e6565b60405180910390f35b61018e60048036038101906101899190611101565b610719565b60405161019b91906110e6565b60405180910390f35b6101be60048036038101906101b99190610f0f565b6107ad565b6040516101cb91906112d8565b60405180910390f35b6101ee60048036038101906101e99190610f0f565b6108e7565b005b61020a600480360381019061020591906112fa565b61097f565b005b61022660048036038101906102219190610f0f565b610b28565b6040516102339190611455565b60405180910390f35b61025660048036038101906102519190610f0f565b610d61565b005b610272600480360381019061026d9190611101565b610e4a565b60405161027f91906110e6565b60405180910390f35b610290610e79565b60405161029d9190611486565b60405180910390f35b60018060008373ffffffffffffffffffffffffffffffffffffffff1673ffffffffffffffffffffffffffffffffffffffff16815260200190815260200160002060003373ffffffffffffffffffffffffffffffffffffffff1673ffffffffffffffffffffffffffffffffffffffff16815260200190815260200160002060006101000a81548160ff02191690831515021790555050565b6001600460003373ffffffffffffffffffffffffffffffffffffffff1673ffffffffffffffffffffffffffffffffffffffff16815260200190815260200160002060008373ffffffffffffffffffffffffffffffffffffffff1673ffffffffffffffffffffffffffffffffffffffff16815260200190815260200160002060006101000a81548160ff02191690831515021790555050565b600560003373ffffffffffffffffffffffffffffffffffffffff1673ffffffffffffffffffffffffffffffffffffffff16815260200190815260200160002060009054906101000a900460ff16610461576040517f08c379a0000000000000000000000000000000000000000000000000000000008152600401610458906114fe565b60405180910390fd5b600360003373ffffffffffffffffffffffffffffffffffffffff1673ffffffffffffffffffffffffffffffffffffffff168152602001908152602001600020604051806040016040528083815260200142815250908060018154018082558091505060019003906000526020600020906002020160009091909190915060008201518160000190816104f3919061172a565b5060208201518160010155505050565b600160003373ffffffffffffffffffffffffffffffffffffffff1673ffffffffffffffffffffffffffffffffffffffff16815260200190815260200160002060008273ffffffffffffffffffffffffffffffffffffffff1673ffffffffffffffffffffffffffffffffffffffff16815260200190815260200160002060009054906101000a900460ff166105cc576040517f08c379a00000000000000000000000000000000000000000000000000000000081526004016105c39061186e565b60405180910390fd5b6000600160003373ffffffffffffffffffffffffffffffffffffffff1673ffffffffffffffffffffffffffffffffffffffff16815260200190815260200160002060008373ffffffffffffffffffffffffffffffffffffffff1673ffffffffffffffffffffffffffffffffffffffff16815260200190815260200160002060006101000a81548160ff0219169083151502179055506000600460003373ffffffffffffffffffffffffffffffffffffffff1673ffffffffffffffffffffffffffffffffffffffff16815260200190815260200160002060008373ffffffffffffffffffffffffffffffffffffffff1673ffffffffffffffffffffffffffffffffffffffff16815260200190815260200160002060006101000a81548160ff02191690831515021790555050565b60056020528060005260406000206000915054906101000a900460ff1681565b6000600460008473ffffffffffffffffffffffffffffffffffffffff1673ffffffffffffffffffffffffffffffffffffffff16815260200190815260200160002060008373ffffffffffffffffffffffffffffffffffffffff1673ffffffffffffffffffffffffffffffffffffffff16815260200190815260200160002060009054906101000a900460ff16905092915050565b6060600360008373ffffffffffffffffffffffffffffffffffffffff1673ffffffffffffffffffffffffffffffffffffffff168152602001908152602001600020805480602002602001604051908101604052809291908181526020016000905b828210156108dc57838290600052602060002090600202016040518060400160405290816000820180546108419061154d565b80601f016020809104026020016040519081016040528092919081815260200182805461086d9061154d565b80156108ba5780601f1061088f576101008083540402835291602001916108ba565b820191906000526020600020905b81548152906001019060200180831161089d57829003601f168201915b505050505081526020016001820154815250508152602001906001019061080e565b505050509050919050565b6000600460003373ffffffffffffffffffffffffffffffffffffffff1673ffffffffffffffffffffffffffffffffffffffff16815260200190815260200160002060008373ffffffffffffffffffffffffffffffffffffffff1673ffffffffffffffffffffffffffffffffffffffff16815260200190815260200160002060006101000a81548160ff02191690831515021790555050565b8173ffffffffffffffffffffffffffffffffffffffff163373ffffffffffffffffffffffffffffffffffffffff161480610a46575060011515600460008473ffffffffffffffffffffffffffffffffffffffff1673ffffffffffffffffffffffffffffffffffffffff16815260200190815260200160002060003373ffffffffffffffffffffffffffffffffffffffff1673ffffffffffffffffffffffffffffffffffffffff16815260200190815260200160002060009054906101000a900460ff161515145b610a85576040517f08c379a0000000000000000000000000000000000000000000000000000000008152600401610a7c90611900565b60405180910390fd5b600260008373ffffffffffffffffffffffffffffffffffffffff1673ffffffffffffffffffffffffffffffffffffffff16815260200190815260200160002060405180604001604052808381526020014281525090806001815401808255809150506001900390600052602060002090600202016000909190919091506000820151816000019081610b17919061172a565b506020820151816001015550505050565b60608173ffffffffffffffffffffffffffffffffffffffff163373ffffffffffffffffffffffffffffffffffffffff161480610bea5750600460008373ffffffffffffffffffffffffffffffffffffffff1673ffffffffffffffffffffffffffffffffffffffff16815260200190815260200160002060003373ffffffffffffffffffffffffffffffffffffffff1673ffffffffffffffffffffffffffffffffffffffff16815260200190815260200160002060009054906101000a900460ff165b610c29576040517f08c379a0000000000000000000000000000000000000000000000000000000008152600401610c209061196c565b60405180910390fd5b600260008373ffffffffffffffffffffffffffffffffffffffff1673ffffffffffffffffffffffffffffffffffffffff168152602001908152602001600020805480602002602001604051908101604052809291908181526020016000905b82821015610d565783829060005260206000209060020201604051806040016040529081600082018054610cbb9061154d565b80601f0160208091040260200160405190810160405280929190818152602001828054610ce79061154d565b8015610d345780601f10610d0957610100808354040283529160200191610d34565b820191906000526020600020905b815481529060010190602001808311610d1757829003601f168201915b5050505050815260200160018201548152505081526020019060010190610c88565b505050509050919050565b60008054906101000a900473ffffffffffffffffffffffffffffffffffffffff1673ffffffffffffffffffffffffffffffffffffffff163373ffffffffffffffffffffffffffffffffffffffff1614610def576040517f08c379a0000000000000000000000000000000000000000000000000000000008152600401610de6906119d8565b60405180910390fd5b6001600560008373ffffffffffffffffffffffffffffffffffffffff1673ffffffffffffffffffffffffffffffffffffffff16815260200190815260200160002060006101000a81548160ff02191690831515021790555050565b60016020528160005260406000206020528060005260406000206000915091509054906101000a900460ff1681565b60008054906101000a900473ffffffffffffffffffffffffffffffffffffffff1681565b6000604051905090565b600080fd5b600080fd5b600073ffffffffffffffffffffffffffffffffffffffff82169050919050565b6000610edc82610eb1565b9050919050565b610eec81610ed1565b8114610ef757600080fd5b50565b600081359050610f0981610ee3565b92915050565b600060208284031215610f2557610f24610ea7565b5b6000610f3384828501610efa565b91505092915050565b600080fd5b600080fd5b6000601f19601f8301169050919050565b7f4e487b7100000000000000000000000000000000000000000000000000000000600052604160045260246000fd5b610f8f82610f46565b810181811067ffffffffffffffff82111715610fae57610fad610f57565b5b80604052505050565b6000610fc1610e9d565b9050610fcd8282610f86565b919050565b600067ffffffffffffffff821115610fed57610fec610f57565b5b610ff682610f46565b9050602081019050919050565b82818337600083830152505050565b600061102561102084610fd2565b610fb7565b90508281526020810184848401111561104157611040610f41565b5b61104c848285611003565b509392505050565b600082601f83011261106957611068610f3c565b5b8135611079848260208601611012565b91505092915050565b60006020828403121561109857611097610ea7565b5b600082013567ffffffffffffffff8111156110b6576110b5610eac565b5b6110c284828501611054565b91505092915050565b60008115159050919050565b6110e0816110cb565b82525050565b60006020820190506110fb60008301846110d7565b92915050565b6000806040838503121561111857611117610ea7565b5b600061112685828601610efa565b925050602061113785828601610efa565b9150509250929050565b600081519050919050565b600082825260208201905092915050565b6000819050602082019050919050565b600081519050919050565b600082825260208201905092915050565b60005b838110156111a757808201518184015260208101905061118c565b60008484015250505050565b60006111be8261116d565b6111c88185611178565b93506111d8818560208601611189565b6111e181610f46565b840191505092915050565b6000819050919050565b6111ff816111ec565b82525050565b6000604083016000830151848203600086015261122282826111b3565b915050602083015161123760208601826111f6565b508091505092915050565b600061124e8383611205565b905092915050565b6000602082019050919050565b600061126e82611141565b611278818561114c565b93508360208202850161128a8561115d565b8060005b858110156112c657848403895281516112a78582611242565b94506112b283611256565b925060208a0199505060018101905061128e565b50829750879550505050505092915050565b600060208201905081810360008301526112f28184611263565b905092915050565b6000806040838503121561131157611310610ea7565b5b600061131f85828601610efa565b925050602083013567ffffffffffffffff8111156113405761133f610eac565b5b61134c85828601611054565b9150509250929050565b600081519050919050565b600082825260208201905092915050565b6000819050602082019050919050565b6000604083016000830151848203600086015261139f82826111b3565b91505060208301516113b460208601826111f6565b508091505092915050565b60006113cb8383611382565b905092915050565b6000602082019050919050565b60006113eb82611356565b6113f58185611361565b93508360208202850161140785611372565b8060005b85811015611443578484038952815161142485826113bf565b945061142f836113d3565b925060208a0199505060018101905061140b565b50829750879550505050505092915050565b6000602082019050818103600083015261146f81846113e0565b905092915050565b61148081610ed1565b82525050565b600060208201905061149b6000830184611477565b92915050565b600082825260208201905092915050565b7f446f63746f72206e6f7420766572696669656400000000000000000000000000600082015250565b60006114e86013836114a1565b91506114f3826114b2565b602082019050919050565b60006020820190508181036000830152611517816114db565b9050919050565b7f4e487b7100000000000000000000000000000000000000000000000000000000600052602260045260246000fd5b6000600282049050600182168061156557607f821691505b6020821081036115785761157761151e565b5b50919050565b60008190508160005260206000209050919050565b60006020601f8301049050919050565b600082821b905092915050565b6000600883026115e07fffffffffffffffffffffffffffffffffffffffffffffffffffffffffffffffff826115a3565b6115ea86836115a3565b95508019841693508086168417925050509392505050565b6000819050919050565b600061162761162261161d846111ec565b611602565b6111ec565b9050919050565b6000819050919050565b6116418361160c565b61165561164d8261162e565b8484546115b0565b825550505050565b600090565b61166a61165d565b611675818484611638565b505050565b5b818110156116995761168e600082611662565b60018101905061167b565b5050565b601f8211156116de576116af8161157e565b6116b884611593565b810160208510156116c7578190505b6116db6116d385611593565b83018261167a565b50505b505050565b600082821c905092915050565b6000611701600019846008026116e3565b1980831691505092915050565b600061171a83836116f0565b9150826002028217905092915050565b6117338261116d565b67ffffffffffffffff81111561174c5761174b610f57565b5b611756825461154d565b61176182828561169d565b600060209050601f8311600181146117945760008415611782578287015190505b61178c858261170e565b8655506117f4565b601f1984166117a28661157e565b60005b828110156117ca578489015182556001820191506020850194506020810190506117a5565b868310156117e757848901516117e3601f8916826116f0565b8355505b6001600288020188555050505b505050505050565b7f4e6f2070656e64696e6720726571756573742066726f6d207468697320646f6360008201527f746f720000000000000000000000000000000000000000000000000000000000602082015250565b60006118586023836114a1565b9150611863826117fc565b604082019050919050565b600060208201905081810360008301526118878161184b565b9050919050565b7f4163636573732064656e6965643a204e6f207065726d697373696f6e20746f2060008201527f73746f7265207265636f72640000000000000000000000000000000000000000602082015250565b60006118ea602c836114a1565b91506118f58261188e565b604082019050919050565b60006020820190508181036000830152611919816118dd565b9050919050565b7f4163636573732064656e69656400000000000000000000000000000000000000600082015250565b6000611956600d836114a1565b915061196182611920565b602082019050919050565b6000602082019050818103600083015261198581611949565b9050919050565b7f4f6e6c792061646d696e20616c6c6f7765640000000000000000000000000000600082015250565b60006119c26012836114a1565b91506119cd8261198c565b602082019050919050565b600060208201905081810360008301526119f1816119b5565b905091905056fea2646970667358221220bdf74af14cd8dcab84753010ef05c5ed32e90822ca44e1288021c4c24cef08aa64736f6c63430008140033",
  "linkReferences": {},
  "deployedLinkReferences": {}
}