{
  "contractName": "StorageHealthRecords",
  "abi": [
    {
      "inputs": [],
      "stateMutability": "nonpayable",
      "type": "constructor"
    },
    {
      "inputs": [],
      "name": "admin",
      "outputs": [
        {
          "internalType": "address",
          "name": "",
          "type": "address"
        }
      ],
      "stateMutability": "view",
      "type": "function",
      "constant": true
    },
    {
      "inputs": [
        {
          "internalType": "address",
          "name": "",
          "type": "address"
        }
      ],
      "name": "doctors",
      "outputs": [
        {
          "internalType": "string",
          "name": "name",
          "type": "string"
        },
        {
          "internalType": "string",
          "name": "specialty",
          "type": "string"
        },
        {
          "internalType": "bool",
          "name": "isApproved",
          "type": "bool"
        },
        {
          "internalType": "bool",
          "name": "isRegistered",
          "type": "bool"
        }
      ],
      "stateMutability": "view",
      "type": "function",
      "constant": true
    },
    {
      "inputs": [
        {
          "internalType": "address",
          "name": "",
          "type": "address"
        }
      ],
      "name": "patientNames",
      "outputs": [
        {
          "internalType": "string",
          "name": "",
          "type": "string"
        }
      ],
      "stateMutability": "view",
      "type": "function",
      "constant": true
    },
    {
      "inputs": [
        {
          "internalType": "address",
          "name": "",
          "type": "address"
        },
        {
          "internalType": "address",
          "name": "",
          "type": "address"
        }
      ],
      "name": "pendingRequests",
      "outputs": [
        {
          "internalType": "bool",
          "name": "",
          "type": "bool"
        }
      ],
      "stateMutability": "view",
      "type": "function",
      "constant": true
    },
    {
      "inputs": [
        {
          "internalType": "address",
          "name": "",
          "type": "address"
        }
      ],
      "name": "verifiedDoctor",
      "outputs": [
        {
          "internalType": "bool",
          "name": "",
          "type": "bool"
        }
      ],
      "stateMutability": "view",
      "type": "function",
      "constant": true
    },
    {
      "inputs": [
        {
          "internalType": "string",
          "name": "_name",
          "type": "string"
        },
        {
          "internalType": "string",
          "name": "_specialty",
          "type": "string"
        }
      ],
      "name": "registerDoctor",
      "outputs": [],
      "stateMutability": "nonpayable",
      "type": "function"
    },
    {
      "inputs": [
        {
          "internalType": "string",
          "name": "_name",
          "type": "string"
        }
      ],
      "name": "registerPatient",
      "outputs": [],
      "stateMutability": "nonpayable",
      "type": "function"
    },
    {
      "inputs": [
        {
          "internalType": "address",
          "name": "_doctor",
          "type": "address"
        }
      ],
      "name": "approveDoctor",
      "outputs": [],
      "stateMutability": "nonpayable",
      "type": "function"
    },
    {
      "inputs": [
        {
          "internalType": "address",
          "name": "_patient",
          "type": "address"
        },
        {
          "internalType": "address",
          "name": "_doctor",
          "type": "address"
        }
      ],
      "name": "checkAccess",
      "outputs": [
        {
          "internalType": "bool",
          "name": "",
          "type": "bool"
        }
      ],
      "stateMutability": "view",
      "type": "function",
      "constant": true
    },
    {
      "inputs": [
        {
          "internalType": "address",
          "name": "_patient",
          "type": "address"
        }
      ],
      "name": "requestAccess",
      "outputs": [],
      "stateMutability": "nonpayable",
      "type": "function"
    },
    {
      "inputs": [
        {
          "internalType": "address",
          "name": "_doctor",
          "type": "address"
        }
      ],
      "name": "rejectAccess",
      "outputs": [],
      "stateMutability": "nonpayable",
      "type": "function"
    },
    {
      "inputs": [
        {
          "internalType": "address",
          "name": "_doctor",
          "type": "address"
        }
      ],
      "name": "grantAccess",
      "outputs": [],
      "stateMutability": "nonpayable",
      "type": "function"
    },
    {
      "inputs": [
        {
          "internalType": "address",
          "name": "_doctor",
          "type": "address"
        }
      ],
      "name": "revokeAccess",
      "outputs": [],
      "stateMutability": "nonpayable",
      "type": "function"
    },
    {
      "inputs": [
        {
          "internalType": "address",
          "name": "_patient",
          "type": "address"
        },
        {
          "internalType": "string",
          "name": "_cid",
          "type": "string"
        }
      ],
      "name": "storeMedicalRecord",
      "outputs": [],
      "stateMutability": "nonpayable",
      "type": "function"
    },
    {
      "inputs": [
        {
          "internalType": "address",
          "name": "_patient",
          "type": "address"
        },
        {
          "internalType": "uint256",
          "name": "_index",
          "type": "uint256"
        }
      ],
      "name": "deactivateMedicalRecord",
      "outputs": [],
      "stateMutability": "nonpayable",
      "type": "function"
    },
    {
      "inputs": [
        {
          "internalType": "address",
          "name": "_patient",
          "type": "address"
        }
      ],
      "name": "getMedicalRecords",
      "outputs": [
        {
          "components": [
            {
              "internalType": "string",
              "name": "cid",
              "type": "string"
            },
            {
              "internalType": "uint256",
              "name": "timestamp",
              "type": "uint256"
            },
            {
              "internalType": "address",
              "name": "createdBy",
              "type": "address"
            },
            {
              "internalType": "bool",
              "name": "isActive",
              "type": "bool"
            }
          ],
          "internalType": "struct StorageHealthRecords.MedicalRecord[]",
          "name": "",
          "type": "tuple[]"
        }
      ],
      "stateMutability": "view",
      "type": "function",
      "constant": true
    },
    {
      "inputs": [
        {
          "internalType": "string",
          "name": "_cid",
          "type": "string"
        }
      ],
      "name": "storeHerbalData",
      "outputs": [],
      "stateMutability": "nonpayable",
      "type": "function"
    },
    {
      "inputs": [
        {
          "internalType": "address",
          "name": "_doctor",
          "type": "address"
        }
      ],
      "name": "getHerbalRecords",
      "outputs": [
        {
          "components": [
            {
              "internalType": "string",
              "name": "cid",
              "type": "string"
            },
            {
              "internalType": "uint256",
              "name": "timestamp",
              "type": "uint256"
            }
          ],
          "internalType": "struct StorageHealthRecords.HerbalRecord[]",
          "name": "",
          "type": "tuple[]"
        }
      ],
      "stateMutability": "view",
      "type": "function",
      "constant": true
    }
  ],
  "bytecode": "0x608060405234801561000f575f80fd5b505f80546001600160a01b031916331790556113248061002e5f395ff3fe608060405234801561000f575f80fd5b5060043610610111575f3560e01c8063833b46bb1161009e578063a5ff6c211161006e578063a5ff6c2114610311578063a9583c2214610324578063afd8297c14610347578063eba7c07c14610367578063f851a44014610394575f80fd5b8063833b46bb1461029057806385e68531146102a3578063869c9eaf146102de57806399f9cc25146102f1575f80fd5b80634162aa6d116100e45780634162aa6d146101d85780635cb93a3b1461020f5780636160a5c21461022257806362e1f7451461023557806373c9457814610270575f80fd5b8063022cb271146101155780630ae5e739146101535780632e8ce6c0146101b25780633141172c146101c5575b5f80fd5b610151610123366004610e1b565b6001600160a01b03165f9081526003602090815260408083203384529091529020805460ff19166001179055565b005b610151610161366004610e1b565b335f8181526003602090815260408083206001600160a01b0395909516808452948252808320805460ff19908116909155938352600682528083209483529390529190912080549091166001179055565b6101516101c0366004610ed8565b6103be565b6101516101d3366004610e1b565b61048a565b6101fa6101e6366004610e1b565b60076020525f908152604090205460ff1681565b60405190151581526020015b60405180910390f35b61015161021d366004610f12565b61051e565b610151610230366004610e1b565b610673565b6101fa610243366004610f3a565b6001600160a01b039182165f90815260066020908152604080832093909416825291909152205460ff1690565b61028361027e366004610e1b565b610768565b6040516102069190610fae565b61015161029e366004611022565b610873565b6101516102b1366004610e1b565b335f9081526006602090815260408083206001600160a01b0394909416835292905220805460ff19169055565b6101516102ec366004610ed8565b610955565b6103046102ff366004610e1b565b610971565b6040516102069190611082565b61015161031f366004611094565b610a08565b610337610332366004610e1b565b610b2a565b60405161020694939291906110d5565b61035a610355366004610e1b565b610c63565b6040516102069190611112565b6101fa610375366004610f3a565b600360209081525f928352604080842090915290825290205460ff1681565b5f546103a6906001600160a01b031681565b6040516001600160a01b039091168152602001610206565b335f9081526007602052604090205460ff1680156103ee5750335f908152600260208190526040909120015460ff165b6104355760405162461bcd60e51b8152602060048201526013602482015272111bd8dd1bdc881b9bdd08185c1c1c9bdd9959606a1b60448201526064015b60405180910390fd5b335f90815260056020908152604080832081518083019092528482524282840152805460018101825590845291909220825160029092020190819061047a908261121e565b5060208201518160010155505050565b335f9081526003602090815260408083206001600160a01b038516845290915290205460ff166104f15760405162461bcd60e51b8152602060048201526012602482015271139bc81c195b991a5b99c81c995c5d595cdd60721b604482015260640161042c565b335f9081526003602090815260408083206001600160a01b0394909416835292905220805460ff19169055565b6001600160a01b0382165f9081526004602052604090205481106105785760405162461bcd60e51b8152602060048201526011602482015270125b99195e081d1a59185ac81d985b1a59607a1b604482015260640161042c565b6001600160a01b0382165f9081526004602052604090208054829081106105a1576105a16112da565b5f9182526020909120600390910201600201546001600160a01b031633146106205760405162461bcd60e51b815260206004820152602c60248201527f48616e796120646f6b7465722070656d627561742079616e672062697361206d60448201526b32b737b730b5ba34b335b0b760a11b606482015260840161042c565b6001600160a01b0382165f908152600460205260408120805483908110610649576106496112da565b905f5260205f20906003020160020160146101000a81548160ff0219169083151502179055505050565b5f546001600160a01b031633146106c15760405162461bcd60e51b815260206004820152601260248201527113db9b1e4818591b5a5b88185b1b1bddd95960721b604482015260640161042c565b6001600160a01b0381165f9081526002602081905260409091200154610100900460ff1661072a5760405162461bcd60e51b81526020600482015260166024820152752237b5ba32b9103132b63ab69036b2b73230b33a30b960511b604482015260640161042c565b6001600160a01b03165f9081526002602081815260408084209092018054600160ff1991821681179092556007909252919092208054909216179055565b6001600160a01b0381165f908152600560209081526040808320805482518185028101850190935280835260609492939192909184015b82821015610868578382905f5260205f2090600202016040518060400160405290815f820180546107cf90611198565b80601f01602080910402602001604051908101604052809291908181526020018280546107fb90611198565b80156108465780601f1061081d57610100808354040283529160200191610846565b820191905f5260205f20905b81548152906001019060200180831161082957829003601f168201915b505050505081526020016001820154815250508152602001906001019061079f565b505050509050919050565b335f9081526002602081905260409091200154610100900460ff16156108cd5760405162461bcd60e51b815260206004820152600f60248201526e29bab230b4103a32b93230b33a30b960891b604482015260640161042c565b6040805160808101825283815260208082018490525f828401819052600160608401523381526002909152919091208151819061090a908261121e565b506020820151600182019061091f908261121e565b5060408201516002909101805460609093015115156101000261ff00199215159290921661ffff19909316929092171790555050565b335f90815260016020526040902061096d828261121e565b5050565b60016020525f90815260409020805461098990611198565b80601f01602080910402602001604051908101604052809291908181526020018280546109b590611198565b8015610a005780601f106109d757610100808354040283529160200191610a00565b820191905f5260205f20905b8154815290600101906020018083116109e357829003601f168201915b505050505081565b336001600160a01b0383161480610a4657506001600160a01b0382165f90815260066020908152604080832033845290915290205460ff1615156001145b610a825760405162461bcd60e51b815260206004820152600d60248201526c1058d8d95cdcc819195b9a5959609a1b604482015260640161042c565b6001600160a01b0382165f90815260046020908152604080832081516080810183528581524281850152339281019290925260016060830181905281549081018255908452919092208251600390920201908190610ae0908261121e565b50602082015160018201556040820151600290910180546060909301511515600160a01b026001600160a81b03199093166001600160a01b03909216919091179190911790555050565b60026020525f9081526040902080548190610b4490611198565b80601f0160208091040260200160405190810160405280929190818152602001828054610b7090611198565b8015610bbb5780601f10610b9257610100808354040283529160200191610bbb565b820191905f5260205f20905b815481529060010190602001808311610b9e57829003601f168201915b505050505090806001018054610bd090611198565b80601f0160208091040260200160405190810160405280929190818152602001828054610bfc90611198565b8015610c475780601f10610c1e57610100808354040283529160200191610c47565b820191905f5260205f20905b815481529060010190602001808311610c2a57829003601f168201915b5050506002909301549192505060ff8082169161010090041684565b6060336001600160a01b0383161480610c9e57506001600160a01b0382165f90815260066020908152604080832033845290915290205460ff165b610cda5760405162461bcd60e51b815260206004820152600d60248201526c1058d8d95cdcc819195b9a5959609a1b604482015260640161042c565b6001600160a01b0382165f90815260046020908152604080832080548251818502810185019093528083529193909284015b82821015610868578382905f5260205f2090600302016040518060800160405290815f82018054610d3c90611198565b80601f0160208091040260200160405190810160405280929190818152602001828054610d6890611198565b8015610db35780601f10610d8a57610100808354040283529160200191610db3565b820191905f5260205f20905b815481529060010190602001808311610d9657829003601f168201915b50505091835250506001828101546020808401919091526002909301546001600160a01b0381166040840152600160a01b900460ff16151560609092019190915291835292019101610d0c565b80356001600160a01b0381168114610e16575f80fd5b919050565b5f60208284031215610e2b575f80fd5b610e3482610e00565b9392505050565b634e487b7160e01b5f52604160045260245ffd5b5f82601f830112610e5e575f80fd5b813567ffffffffffffffff80821115610e7957610e79610e3b565b604051601f8301601f19908116603f01168101908282118183101715610ea157610ea1610e3b565b81604052838152866020858801011115610eb9575f80fd5b836020870160208301375f602085830101528094505050505092915050565b5f60208284031215610ee8575f80fd5b813567ffffffffffffffff811115610efe575f80fd5b610f0a84828501610e4f565b949350505050565b5f8060408385031215610f23575f80fd5b610f2c83610e00565b946020939093013593505050565b5f8060408385031215610f4b575f80fd5b610f5483610e00565b9150610f6260208401610e00565b90509250929050565b5f81518084525f5b81811015610f8f57602081850181015186830182015201610f73565b505f602082860101526020601f19601f83011685010191505092915050565b5f6020808301818452808551808352604092508286019150828160051b8701018488015f5b8381101561101457888303603f1901855281518051878552610ff788860182610f6b565b918901519489019490945294870194925090860190600101610fd3565b509098975050505050505050565b5f8060408385031215611033575f80fd5b823567ffffffffffffffff8082111561104a575f80fd5b61105686838701610e4f565b9350602085013591508082111561106b575f80fd5b5061107885828601610e4f565b9150509250929050565b602081525f610e346020830184610f6b565b5f80604083850312156110a5575f80fd5b6110ae83610e00565b9150602083013567ffffffffffffffff8111156110c9575f80fd5b61107885828601610e4f565b608081525f6110e76080830187610f6b565b82810360208401526110f98187610f6b565b9415156040840152505090151560609091015292915050565b5f6020808301818452808551808352604092508286019150828160051b8701018488015f5b8381101561101457603f1989840301855281516080815181865261115d82870182610f6b565b838b0151878c0152898401516001600160a01b03168a8801526060938401511515939096019290925250509386019390860190600101611137565b600181811c908216806111ac57607f821691505b6020821081036111ca57634e487b7160e01b5f52602260045260245ffd5b50919050565b601f821115611219575f81815260208120601f850160051c810160208610156111f65750805b601f850160051c820191505b8181101561121557828155600101611202565b5050505b505050565b815167ffffffffffffffff81111561123857611238610e3b565b61124c816112468454611198565b846111d0565b602080601f83116001811461127f575f84156112685750858301515b5f19600386901b1c1916600185901b178555611215565b5f85815260208120601f198616915b828110156112ad5788860151825594840194600190910190840161128e565b50858210156112ca57878501515f19600388901b60f8161c191681555b5050505050600190811b01905550565b634e487b7160e01b5f52603260045260245ffdfea26469706673582212206345fb9615148d3e93adfb1eecf1b084a6a2741f5b6e94679371ae5bfcd736c864736f6c63430008140033",
  "immutableReferences": {},
  "source": "// SPDX-License-Identifier: MIT\r\npragma solidity ^0.8.20;\r\n\r\ncontract StorageHealthRecords {\r\n\r\n    address public admin;\r\n\r\n    constructor() {\r\n        admin = msg.sender;\r\n    }\r\n\r\n    modifier onlyAdmin() {\r\n        require(msg.sender == admin, \"Only admin allowed\");\r\n        _;\r\n    }\r\n\r\n    // =====================\r\n    // 1. STRUCT (Struktur Data)\r\n    // =====================\r\n\r\n    struct MedicalRecord {\r\n        string cid;\r\n        uint256 timestamp;\r\n        address createdBy; \r\n        bool isActive;\r\n    }\r\n\r\n    struct HerbalRecord {\r\n        string cid;\r\n        uint256 timestamp;\r\n    }\r\n\r\n    struct DoctorProfile {\r\n        string name;\r\n        string specialty;\r\n        bool isApproved;\r\n        bool isRegistered;\r\n    }\r\n\r\n    // =====================\r\n    // 2. STORAGE (Penyimpanan State)\r\n    // =====================\r\n\r\n    mapping(address => string) public patientNames; // Nama untuk Pasien\r\n    mapping(address => DoctorProfile) public doctors; // Profil lengkap Dokter\r\n    \r\n    mapping(address => mapping(address => bool)) public pendingRequests;\r\n    mapping(address => MedicalRecord[]) private medicalRecords;\r\n    mapping(address => HerbalRecord[]) private herbalRecords;\r\n    mapping(address => mapping(address => bool)) private accessPermission;\r\n    mapping(address => bool) public verifiedDoctor;\r\n\r\n    // =====================\r\n    // 3. IDENTITY & REGISTRATION\r\n    // =====================\r\n\r\n    // Dokter mendaftar (Status awal: Belum disetujui admin)\r\n    function registerDoctor(string memory _name, string memory _specialty) public {\r\n        require(!doctors[msg.sender].isRegistered, \"Sudah terdaftar\");\r\n        doctors[msg.sender] = DoctorProfile(_name, _specialty, false, true);\r\n    }\r\n\r\n    // Pasien mendaftar nama saja\r\n    function registerPatient(string memory _name) public {\r\n        patientNames[msg.sender] = _name;\r\n    }\r\n\r\n    // Admin menyetujui Dokter (Supaya bisa input data herbal/medis)\r\n    function approveDoctor(address _doctor) public onlyAdmin {\r\n        require(doctors[_doctor].isRegistered, \"Dokter belum mendaftar\");\r\n        doctors[_doctor].isApproved = true;\r\n        verifiedDoctor[_doctor] = true; \r\n    }\r\n\r\n    // =====================\r\n    // 4. MEDICAL ACCESS (REJECT & REVOKE)\r\n    // =====================\r\n\r\n    function checkAccess(address _patient, address _doctor) public view returns (bool) {\r\n        return accessPermission[_patient][_doctor];\r\n    }\r\n\r\n    function requestAccess(address _patient) public {\r\n        pendingRequests[_patient][msg.sender] = true;\r\n    }\r\n\r\n    // Pasien menolak permintaan yang masuk\r\n    function rejectAccess(address _doctor) public {\r\n        require(pendingRequests[msg.sender][_doctor], \"No pending request\");\r\n        pendingRequests[msg.sender][_doctor] = false;\r\n    }\r\n\r\n    // Pasien memberikan izin (Otomatis hapus dari pending)\r\n    function grantAccess(address _doctor) public {\r\n        pendingRequests[msg.sender][_doctor] = false;\r\n        accessPermission[msg.sender][_doctor] = true;\r\n    }\r\n\r\n    // Pasien mencabut izin yang sudah ada\r\n    function revokeAccess(address _doctor) public {\r\n        accessPermission[msg.sender][_doctor] = false;\r\n    }\r\n\r\n    // =====================\r\n    // 5. DATA MANAGEMENT\r\n    // =====================\r\n\r\n    function storeMedicalRecord(address _patient, string memory _cid) public {\r\n        require(\r\n            msg.sender == _patient || accessPermission[_patient][msg.sender] == true, \r\n            \"Access denied\"\r\n        );\r\n        medicalRecords[_patient].push(\r\n            MedicalRecord(_cid, block.timestamp, msg.sender, true)\r\n        );\r\n    }\r\n\r\n    function deactivateMedicalRecord(address _patient, uint256 _index) public {\r\n        // Validasi dasar\r\n        require(_index < medicalRecords[_patient].length, \"Index tidak valid\");\r\n        \r\n        // Pastikan yang menghapus adalah dokter yang membuat data tersebut\r\n        require(\r\n            msg.sender == medicalRecords[_patient][_index].createdBy,\r\n            \"Hanya dokter pembuat yang bisa menonaktifkan\"\r\n        );\r\n\r\n        medicalRecords[_patient][_index].isActive = false;\r\n    }\r\n\r\n    function getMedicalRecords(address _patient) public view returns (MedicalRecord[] memory) {\r\n    require(\r\n        msg.sender == _patient || accessPermission[_patient][msg.sender],\r\n        \"Access denied\"\r\n    );\r\n    return medicalRecords[_patient];\r\n}\r\n\r\n    function storeHerbalData(string memory _cid) public {\r\n        require(verifiedDoctor[msg.sender] && doctors[msg.sender].isApproved, \"Doctor not approved\");\r\n        herbalRecords[msg.sender].push(HerbalRecord(_cid, block.timestamp));\r\n    }\r\n\r\n    function getHerbalRecords(address _doctor) public view returns (HerbalRecord[] memory) {\r\n        return herbalRecords[_doctor];\r\n    }\r\n}",
  "sourcePath": "D:\\Semester 7\\TA\\TA2\\Implementasi\\backend\\contracts\\StorageHealthRecords.sol",
  "compiler": {
    "name": "solc",
    "version": "0.8.20+commit.a1b79de6.Emscripten.clang"
  },
  "schemaVersion": "3.4.16",
  "updatedAt": "2026-03-06T01:23:53.189Z",
  "networkType": "ethereum",
  "devdoc": {
    "kind": "dev",
    "methods": {},
    "version": 1
  },
  "userdoc": {
    "kind": "user",
    "methods": {},
    "version": 1
  }
}