{
  "contractName": "StorageHealthRecords",
  "abi": [
    {
      "inputs": [],
      "stateMutability": "nonpayable",
      "type": "constructor"
    },
    {
      "inputs": [],
      "name": "admin",
      "outputs": [
        {
          "internalType": "address",
          "name": "",
          "type": "address"
        }
      ],
      "stateMutability": "view",
      "type": "function"
    },
    {
      "inputs": [
        {
          "internalType": "address",
          "name": "",
          "type": "address"
        }
      ],
      "name": "doctors",
      "outputs": [
        {
          "internalType": "string",
          "name": "name",
          "type": "string"
        },
        {
          "internalType": "string",
          "name": "specialty",
          "type": "string"
        },
        {
          "internalType": "bool",
          "name": "isApproved",
          "type": "bool"
        },
        {
          "internalType": "bool",
          "name": "isRegistered",
          "type": "bool"
        }
      ],
      "stateMutability": "view",
      "type": "function"
    },
    {
      "inputs": [
        {
          "internalType": "address",
          "name": "",
          "type": "address"
        }
      ],
      "name": "patientNames",
      "outputs": [
        {
          "internalType": "string",
          "name": "",
          "type": "string"
        }
      ],
      "stateMutability": "view",
      "type": "function"
    },
    {
      "inputs": [
        {
          "internalType": "address",
          "name": "",
          "type": "address"
        },
        {
          "internalType": "address",
          "name": "",
          "type": "address"
        }
      ],
      "name": "pendingRequests",
      "outputs": [
        {
          "internalType": "bool",
          "name": "",
          "type": "bool"
        }
      ],
      "stateMutability": "view",
      "type": "function"
    },
    {
      "inputs": [
        {
          "internalType": "address",
          "name": "",
          "type": "address"
        }
      ],
      "name": "verifiedDoctor",
      "outputs": [
        {
          "internalType": "bool",
          "name": "",
          "type": "bool"
        }
      ],
      "stateMutability": "view",
      "type": "function"
    },
    {
      "inputs": [
        {
          "internalType": "string",
          "name": "_name",
          "type": "string"
        },
        {
          "internalType": "string",
          "name": "_specialty",
          "type": "string"
        }
      ],
      "name": "registerDoctor",
      "outputs": [],
      "stateMutability": "nonpayable",
      "type": "function"
    },
    {
      "inputs": [
        {
          "internalType": "string",
          "name": "_name",
          "type": "string"
        }
      ],
      "name": "registerPatient",
      "outputs": [],
      "stateMutability": "nonpayable",
      "type": "function"
    },
    {
      "inputs": [
        {
          "internalType": "address",
          "name": "_doctor",
          "type": "address"
        }
      ],
      "name": "approveDoctor",
      "outputs": [],
      "stateMutability": "nonpayable",
      "type": "function"
    },
    {
      "inputs": [
        {
          "internalType": "address",
          "name": "_patient",
          "type": "address"
        },
        {
          "internalType": "address",
          "name": "_doctor",
          "type": "address"
        }
      ],
      "name": "checkAccess",
      "outputs": [
        {
          "internalType": "bool",
          "name": "",
          "type": "bool"
        }
      ],
      "stateMutability": "view",
      "type": "function"
    },
    {
      "inputs": [
        {
          "internalType": "address",
          "name": "_patient",
          "type": "address"
        }
      ],
      "name": "requestAccess",
      "outputs": [],
      "stateMutability": "nonpayable",
      "type": "function"
    },
    {
      "inputs": [
        {
          "internalType": "address",
          "name": "_doctor",
          "type": "address"
        }
      ],
      "name": "rejectAccess",
      "outputs": [],
      "stateMutability": "nonpayable",
      "type": "function"
    },
    {
      "inputs": [
        {
          "internalType": "address",
          "name": "_doctor",
          "type": "address"
        }
      ],
      "name": "grantAccess",
      "outputs": [],
      "stateMutability": "nonpayable",
      "type": "function"
    },
    {
      "inputs": [
        {
          "internalType": "address",
          "name": "_doctor",
          "type": "address"
        }
      ],
      "name": "revokeAccess",
      "outputs": [],
      "stateMutability": "nonpayable",
      "type": "function"
    },
    {
      "inputs": [
        {
          "internalType": "address",
          "name": "_patient",
          "type": "address"
        },
        {
          "internalType": "string",
          "name": "_cid",
          "type": "string"
        }
      ],
      "name": "storeMedicalRecord",
      "outputs": [],
      "stateMutability": "nonpayable",
      "type": "function"
    },
    {
      "inputs": [
        {
          "internalType": "address",
          "name": "_patient",
          "type": "address"
        }
      ],
      "name": "getMedicalRecords",
      "outputs": [
        {
          "components": [
            {
              "internalType": "string",
              "name": "cid",
              "type": "string"
            },
            {
              "internalType": "uint256",
              "name": "timestamp",
              "type": "uint256"
            },
            {
              "internalType": "address",
              "name": "createdBy",
              "type": "address"
            }
          ],
          "internalType": "struct StorageHealthRecords.MedicalRecord[]",
          "name": "",
          "type": "tuple[]"
        }
      ],
      "stateMutability": "view",
      "type": "function"
    },
    {
      "inputs": [
        {
          "internalType": "string",
          "name": "_cid",
          "type": "string"
        }
      ],
      "name": "storeHerbalData",
      "outputs": [],
      "stateMutability": "nonpayable",
      "type": "function"
    },
    {
      "inputs": [
        {
          "internalType": "address",
          "name": "_doctor",
          "type": "address"
        }
      ],
      "name": "getHerbalRecords",
      "outputs": [
        {
          "components": [
            {
              "internalType": "string",
              "name": "cid",
              "type": "string"
            },
            {
              "internalType": "uint256",
              "name": "timestamp",
              "type": "uint256"
            }
          ],
          "internalType": "struct StorageHealthRecords.HerbalRecord[]",
          "name": "",
          "type": "tuple[]"
        }
      ],
      "stateMutability": "view",
      "type": "function"
    }
  ],
  "bytecode": "0x608060405234801561000f575f80fd5b505f80546001600160a01b0319163317905561113c8061002e5f395ff3fe608060405234801561000f575f80fd5b5060043610610106575f3560e01c8063833b46bb1161009e578063a5ff6c211161006e578063a5ff6c21146102f3578063a9583c2214610306578063afd8297c14610329578063eba7c07c14610349578063f851a44014610376575f80fd5b8063833b46bb1461027257806385e6853114610285578063869c9eaf146102c057806399f9cc25146102d3575f80fd5b80634162aa6d116100d95780634162aa6d146101cd5780636160a5c21461020457806362e1f7451461021757806373c9457814610252575f80fd5b8063022cb2711461010a5780630ae5e739146101485780632e8ce6c0146101a75780633141172c146101ba575b5f80fd5b610146610118366004610c7b565b6001600160a01b03165f9081526003602090815260408083203384529091529020805460ff19166001179055565b005b610146610156366004610c7b565b335f8181526003602090815260408083206001600160a01b0395909516808452948252808320805460ff19908116909155938352600682528083209483529390529190912080549091166001179055565b6101466101b5366004610d38565b6103a0565b6101466101c8366004610c7b565b61046c565b6101ef6101db366004610c7b565b60076020525f908152604090205460ff1681565b60405190151581526020015b60405180910390f35b610146610212366004610c7b565b610500565b6101ef610225366004610d72565b6001600160a01b039182165f90815260066020908152604080832093909416825291909152205460ff1690565b610265610260366004610c7b565b6105f5565b6040516101fb9190610de6565b610146610280366004610e5a565b610700565b610146610293366004610c7b565b335f9081526006602090815260408083206001600160a01b0394909416835292905220805460ff19169055565b6101466102ce366004610d38565b6107e2565b6102e66102e1366004610c7b565b6107fe565b6040516101fb9190610eba565b610146610301366004610ecc565b610895565b610319610314366004610c7b565b61099c565b6040516101fb9493929190610f0d565b61033c610337366004610c7b565b610ad5565b6040516101fb9190610f4a565b6101ef610357366004610d72565b600360209081525f928352604080842090915290825290205460ff1681565b5f54610388906001600160a01b031681565b6040516001600160a01b0390911681526020016101fb565b335f9081526007602052604090205460ff1680156103d05750335f908152600260208190526040909120015460ff165b6104175760405162461bcd60e51b8152602060048201526013602482015272111bd8dd1bdc881b9bdd08185c1c1c9bdd9959606a1b60448201526064015b60405180910390fd5b335f90815260056020908152604080832081518083019092528482524282840152805460018101825590845291909220825160029092020190819061045c908261104a565b5060208201518160010155505050565b335f9081526003602090815260408083206001600160a01b038516845290915290205460ff166104d35760405162461bcd60e51b8152602060048201526012602482015271139bc81c195b991a5b99c81c995c5d595cdd60721b604482015260640161040e565b335f9081526003602090815260408083206001600160a01b0394909416835292905220805460ff19169055565b5f546001600160a01b0316331461054e5760405162461bcd60e51b815260206004820152601260248201527113db9b1e4818591b5a5b88185b1b1bddd95960721b604482015260640161040e565b6001600160a01b0381165f9081526002602081905260409091200154610100900460ff166105b75760405162461bcd60e51b81526020600482015260166024820152752237b5ba32b9103132b63ab69036b2b73230b33a30b960511b604482015260640161040e565b6001600160a01b03165f9081526002602081815260408084209092018054600160ff1991821681179092556007909252919092208054909216179055565b6001600160a01b0381165f908152600560209081526040808320805482518185028101850190935280835260609492939192909184015b828210156106f5578382905f5260205f2090600202016040518060400160405290815f8201805461065c90610fc4565b80601f016020809104026020016040519081016040528092919081815260200182805461068890610fc4565b80156106d35780601f106106aa576101008083540402835291602001916106d3565b820191905f5260205f20905b8154815290600101906020018083116106b657829003601f168201915b505050505081526020016001820154815250508152602001906001019061062c565b505050509050919050565b335f9081526002602081905260409091200154610100900460ff161561075a5760405162461bcd60e51b815260206004820152600f60248201526e29bab230b4103a32b93230b33a30b960891b604482015260640161040e565b6040805160808101825283815260208082018490525f8284018190526001606084015233815260029091529190912081518190610797908261104a565b50602082015160018201906107ac908261104a565b5060408201516002909101805460609093015115156101000261ff00199215159290921661ffff19909316929092171790555050565b335f9081526001602052604090206107fa828261104a565b5050565b60016020525f90815260409020805461081690610fc4565b80601f016020809104026020016040519081016040528092919081815260200182805461084290610fc4565b801561088d5780601f106108645761010080835404028352916020019161088d565b820191905f5260205f20905b81548152906001019060200180831161087057829003601f168201915b505050505081565b336001600160a01b03831614806108d357506001600160a01b0382165f90815260066020908152604080832033845290915290205460ff1615156001145b61090f5760405162461bcd60e51b815260206004820152600d60248201526c1058d8d95cdcc819195b9a5959609a1b604482015260640161040e565b6001600160a01b0382165f9081526004602090815260408083208151606081018352858152428185015233928101929092528054600181018255908452919092208251600390920201908190610965908261104a565b5060208201516001820155604090910151600290910180546001600160a01b0319166001600160a01b039092169190911790555050565b60026020525f90815260409020805481906109b690610fc4565b80601f01602080910402602001604051908101604052809291908181526020018280546109e290610fc4565b8015610a2d5780601f10610a0457610100808354040283529160200191610a2d565b820191905f5260205f20905b815481529060010190602001808311610a1057829003601f168201915b505050505090806001018054610a4290610fc4565b80601f0160208091040260200160405190810160405280929190818152602001828054610a6e90610fc4565b8015610ab95780601f10610a9057610100808354040283529160200191610ab9565b820191905f5260205f20905b815481529060010190602001808311610a9c57829003601f168201915b5050506002909301549192505060ff8082169161010090041684565b6060336001600160a01b0383161480610b1057506001600160a01b0382165f90815260066020908152604080832033845290915290205460ff165b610b4c5760405162461bcd60e51b815260206004820152600d60248201526c1058d8d95cdcc819195b9a5959609a1b604482015260640161040e565b6001600160a01b0382165f90815260046020908152604080832080548251818502810185019093528083529193909284015b828210156106f5578382905f5260205f2090600302016040518060600160405290815f82018054610bae90610fc4565b80601f0160208091040260200160405190810160405280929190818152602001828054610bda90610fc4565b8015610c255780601f10610bfc57610100808354040283529160200191610c25565b820191905f5260205f20905b815481529060010190602001808311610c0857829003601f168201915b50505091835250506001828101546020808401919091526002909301546001600160a01b031660409092019190915291835292019101610b7e565b80356001600160a01b0381168114610c76575f80fd5b919050565b5f60208284031215610c8b575f80fd5b610c9482610c60565b9392505050565b634e487b7160e01b5f52604160045260245ffd5b5f82601f830112610cbe575f80fd5b813567ffffffffffffffff80821115610cd957610cd9610c9b565b604051601f8301601f19908116603f01168101908282118183101715610d0157610d01610c9b565b81604052838152866020858801011115610d19575f80fd5b836020870160208301375f602085830101528094505050505092915050565b5f60208284031215610d48575f80fd5b813567ffffffffffffffff811115610d5e575f80fd5b610d6a84828501610caf565b949350505050565b5f8060408385031215610d83575f80fd5b610d8c83610c60565b9150610d9a60208401610c60565b90509250929050565b5f81518084525f5b81811015610dc757602081850181015186830182015201610dab565b505f602082860101526020601f19601f83011685010191505092915050565b5f6020808301818452808551808352604092508286019150828160051b8701018488015f5b83811015610e4c57888303603f1901855281518051878552610e2f88860182610da3565b918901519489019490945294870194925090860190600101610e0b565b509098975050505050505050565b5f8060408385031215610e6b575f80fd5b823567ffffffffffffffff80821115610e82575f80fd5b610e8e86838701610caf565b93506020850135915080821115610ea3575f80fd5b50610eb085828601610caf565b9150509250929050565b602081525f610c946020830184610da3565b5f8060408385031215610edd575f80fd5b610ee683610c60565b9150602083013567ffffffffffffffff811115610f01575f80fd5b610eb085828601610caf565b608081525f610f1f6080830187610da3565b8281036020840152610f318187610da3565b9415156040840152505090151560609091015292915050565b5f6020808301818452808551808352604092508286019150828160051b8701018488015f5b83811015610e4c57603f19898403018552815160608151818652610f9582870182610da3565b838b0151878c0152928901516001600160a01b0316958901959095525094870194925090860190600101610f6f565b600181811c90821680610fd857607f821691505b602082108103610ff657634e487b7160e01b5f52602260045260245ffd5b50919050565b601f821115611045575f81815260208120601f850160051c810160208610156110225750805b601f850160051c820191505b818110156110415782815560010161102e565b5050505b505050565b815167ffffffffffffffff81111561106457611064610c9b565b611078816110728454610fc4565b84610ffc565b602080601f8311600181146110ab575f84156110945750858301515b5f19600386901b1c1916600185901b178555611041565b5f85815260208120601f198616915b828110156110d9578886015182559484019460019091019084016110ba565b50858210156110f657878501515f19600388901b60f8161c191681555b5050505050600190811b0190555056fea26469706673582212206c49af9ee7c4c3b6ea92aeef7072dde5ea162587a9b099dd848cc38e632cefbf64736f6c63430008140033",
  "immutableReferences": {},
  "source": "// SPDX-License-Identifier: MIT\r\npragma solidity ^0.8.20;\r\n\r\ncontract StorageHealthRecords {\r\n\r\n    address public admin;\r\n\r\n    constructor() {\r\n        admin = msg.sender;\r\n    }\r\n\r\n    modifier onlyAdmin() {\r\n        require(msg.sender == admin, \"Only admin allowed\");\r\n        _;\r\n    }\r\n\r\n    // =====================\r\n    // 1. STRUCT (Struktur Data)\r\n    // =====================\r\n\r\n    struct MedicalRecord {\r\n        string cid;\r\n        uint256 timestamp;\r\n        address createdBy; \r\n    }\r\n\r\n    struct HerbalRecord {\r\n        string cid;\r\n        uint256 timestamp;\r\n    }\r\n\r\n    struct DoctorProfile {\r\n        string name;\r\n        string specialty;\r\n        bool isApproved;\r\n        bool isRegistered;\r\n    }\r\n\r\n    // =====================\r\n    // 2. STORAGE (Penyimpanan State)\r\n    // =====================\r\n\r\n    mapping(address => string) public patientNames; // Nama untuk Pasien\r\n    mapping(address => DoctorProfile) public doctors; // Profil lengkap Dokter\r\n    \r\n    mapping(address => mapping(address => bool)) public pendingRequests;\r\n    mapping(address => MedicalRecord[]) private medicalRecords;\r\n    mapping(address => HerbalRecord[]) private herbalRecords;\r\n    mapping(address => mapping(address => bool)) private accessPermission;\r\n    mapping(address => bool) public verifiedDoctor;\r\n\r\n    // =====================\r\n    // 3. IDENTITY & REGISTRATION\r\n    // =====================\r\n\r\n    // Dokter mendaftar (Status awal: Belum disetujui admin)\r\n    function registerDoctor(string memory _name, string memory _specialty) public {\r\n        require(!doctors[msg.sender].isRegistered, \"Sudah terdaftar\");\r\n        doctors[msg.sender] = DoctorProfile(_name, _specialty, false, true);\r\n    }\r\n\r\n    // Pasien mendaftar nama saja\r\n    function registerPatient(string memory _name) public {\r\n        patientNames[msg.sender] = _name;\r\n    }\r\n\r\n    // Admin menyetujui Dokter (Supaya bisa input data herbal/medis)\r\n    function approveDoctor(address _doctor) public onlyAdmin {\r\n        require(doctors[_doctor].isRegistered, \"Dokter belum mendaftar\");\r\n        doctors[_doctor].isApproved = true;\r\n        verifiedDoctor[_doctor] = true; \r\n    }\r\n\r\n    // =====================\r\n    // 4. MEDICAL ACCESS (REJECT & REVOKE)\r\n    // =====================\r\n\r\n    function checkAccess(address _patient, address _doctor) public view returns (bool) {\r\n        return accessPermission[_patient][_doctor];\r\n    }\r\n\r\n    function requestAccess(address _patient) public {\r\n        pendingRequests[_patient][msg.sender] = true;\r\n    }\r\n\r\n    // Pasien menolak permintaan yang masuk\r\n    function rejectAccess(address _doctor) public {\r\n        require(pendingRequests[msg.sender][_doctor], \"No pending request\");\r\n        pendingRequests[msg.sender][_doctor] = false;\r\n    }\r\n\r\n    // Pasien memberikan izin (Otomatis hapus dari pending)\r\n    function grantAccess(address _doctor) public {\r\n        pendingRequests[msg.sender][_doctor] = false;\r\n        accessPermission[msg.sender][_doctor] = true;\r\n    }\r\n\r\n    // Pasien mencabut izin yang sudah ada\r\n    function revokeAccess(address _doctor) public {\r\n        accessPermission[msg.sender][_doctor] = false;\r\n    }\r\n\r\n    // =====================\r\n    // 5. DATA MANAGEMENT\r\n    // =====================\r\n\r\n    function storeMedicalRecord(address _patient, string memory _cid) public {\r\n        require(\r\n            msg.sender == _patient || accessPermission[_patient][msg.sender] == true, \r\n            \"Access denied\"\r\n        );\r\n        medicalRecords[_patient].push(\r\n            MedicalRecord(_cid, block.timestamp, msg.sender)\r\n        );\r\n    }\r\n\r\n    function getMedicalRecords(address _patient) public view returns (MedicalRecord[] memory) {\r\n        require(\r\n            msg.sender == _patient || accessPermission[_patient][msg.sender],\r\n            \"Access denied\"\r\n        );\r\n        return medicalRecords[_patient];\r\n    }\r\n\r\n    function storeHerbalData(string memory _cid) public {\r\n        require(verifiedDoctor[msg.sender] && doctors[msg.sender].isApproved, \"Doctor not approved\");\r\n        herbalRecords[msg.sender].push(HerbalRecord(_cid, block.timestamp));\r\n    }\r\n\r\n    function getHerbalRecords(address _doctor) public view returns (HerbalRecord[] memory) {\r\n        return herbalRecords[_doctor];\r\n    }\r\n}",
  "sourcePath": "D:\\Semester 7\\TA\\TA2\\Implementasi\\backend\\contracts\\StorageHealthRecords.sol",
  "compiler": {
    "name": "solc",
    "version": "0.8.20+commit.a1b79de6.Emscripten.clang"
  },
  "schemaVersion": "3.4.16",
  "updatedAt": "2026-02-18T03:56:22.188Z",
  "devdoc": {
    "kind": "dev",
    "methods": {},
    "version": 1
  },
  "userdoc": {
    "kind": "user",
    "methods": {},
    "version": 1
  }
}